{"abi":[{"type":"constructor","inputs":[{"name":"_bgtRewarder","type":"address","internalType":"address"},{"name":"_lendRewardsAggregator","type":"address","internalType":"address"},{"name":"_perpsRewarder","type":"address","internalType":"address"}],"stateMutability":"nonpayable"},{"type":"function","name":"claimAllRewards","inputs":[{"name":"_receiver","type":"address","internalType":"address"},{"name":"dexPoolAddresses","type":"address[]","internalType":"address[]"}],"outputs":[],"stateMutability":"payable"},{"type":"function","name":"getAllRewards","inputs":[{"name":"_owner","type":"address","internalType":"address"},{"name":"dexPoolAddresses","type":"address[]","internalType":"address[]"}],"outputs":[{"name":"dexPendingRewards","type":"uint256","internalType":"uint256"},{"name":"lendPendingRewards","type":"uint256","internalType":"uint256"},{"name":"perpsPendingRewards","type":"uint256","internalType":"uint256"}],"stateMutability":"nonpayable"},{"type":"function","name":"test","inputs":[],"outputs":[],"stateMutability":"view"}],"bytecode":{"object":"0x608060405234801561001057600080fd5b50604051610dc6380380610dc683398101604081905261002f916100b2565b600280546001600160a01b039485166001600160a01b031991821681179092556003805482169092179091556000805493851693821684179055600480548216909317909255600180549190931690821681179092556005805490911690911790556100f5565b80516001600160a01b03811681146100ad57600080fd5b919050565b6000806000606084860312156100c757600080fd5b6100d084610096565b92506100de60208501610096565b91506100ec60408501610096565b90509250925092565b610cc2806101046000396000f3fe6080604052600436106100345760003560e01c806332f2298a14610039578063bb1015c81461004e578063f8a8fd6d1461008d575b600080fd5b61004c61004736600461098d565b6100a2565b005b34801561005a57600080fd5b5061006e61006936600461098d565b6105af565b6040805193845260208401929092529082015260600160405180910390f35b34801561009957600080fd5b5061004c610802565b6100c860405180604001604052806005815260200164232323232360d91b81525061082d565b60005b81518110156105aa57600354825160009182916001600160a01b0390911690638cb3ca0b60e01b90879087908790811061010757610107610a3d565b60200260200101516040516024016101359291906001600160a01b0392831681529116602082015260400190565b60408051601f198184030181529181526020820180516001600160e01b03166001600160e01b03199094169390931790925290516101739190610a77565b600060405180830381855af49150503d80600081146101ae576040519150601f19603f3d011682016040523d82523d6000602084013e6101b3565b606091505b50915091506101f960405180604001604052806002815260200161257360f01b81525060405180604001604052806005815260200164232323232360d91b815250610873565b61023a60405180604001604052806002815260200161257360f01b81525060405180604001604052806005815260200164232323232360d91b815250610873565b818015610248575060008151115b156105a0576000818060200190518101906102639190610a93565b90506102a660405180604001604052806002815260200161257360f01b81525060405180604001604052806005815260200164232323232360d91b815250610873565b6102e760405180604001604052806002815260200161257360f01b81525060405180604001604052806005815260200164232323232360d91b815250610873565b61032860405180604001604052806002815260200161257360f01b81525060405180604001604052806005815260200164232323232360d91b815250610873565b60008151118015610357575060008160008151811061034957610349610a3d565b602002602001015160000151115b1561059e5761039d60405180604001604052806002815260200161257360f01b81525060405180604001604052806005815260200164232323232360d91b815250610873565b6103de60405180604001604052806002815260200161257360f01b81525060405180604001604052806005815260200164232323232360d91b815250610873565b61041f60405180604001604052806002815260200161257360f01b81525060405180604001604052806005815260200164232323232360d91b815250610873565b61046060405180604001604052806002815260200161257360f01b81525060405180604001604052806005815260200164232323232360d91b815250610873565b600354855160009182916001600160a01b039091169063c02e892960e01b9089908990811061049157610491610a3d565b60200260200101516040516024016104b891906001600160a01b0391909116815260200190565b60408051601f198184030181529181526020820180516001600160e01b03166001600160e01b03199094169390931790925290516104f69190610a77565b600060405180830381855af49150503d8060008114610531576040519150601f19603f3d011682016040523d82523d6000602084013e610536565b606091505b50909250905081151560000361059b578051156105565780518082602001fd5b60405162461bcd60e51b8152602060048201526016602482015275119d5b98dd1a5bdb8818d85b1b081c995d995c9d195960521b604482015260640160405180910390fd5b50505b505b50506001016100cb565b505050565b6000808080805b855181101561070f57600354865160009182916001600160a01b0390911690638cb3ca0b60e01b908b908b90879081106105f2576105f2610a3d565b60200260200101516040516024016106209291906001600160a01b0392831681529116602082015260400190565b60408051601f198184030181529181526020820180516001600160e01b03166001600160e01b031990941693909317909252905161065e9190610a77565b600060405180830381855af49150503d8060008114610699576040519150601f19603f3d011682016040523d82523d6000602084013e61069e565b606091505b50915091508180156106b1575060008151115b15610705576000818060200190518101906106cc9190610a93565b80519091501561070357806000815181106106e9576106e9610a3d565b602002602001015160000151856107009190610bd8565b94505b505b50506001016105b6565b506000805460405163362a3fad60e01b81526001600160a01b0389811660048301529091169063362a3fad90602401602060405180830381865afa15801561075b573d6000803e3d6000fd5b505050506040513d601f19601f8201168201806040525081019061077f9190610bff565b600154604051633065ce0f60e01b81526001600160a01b038a8116600483015292935060009290911690633065ce0f90602401602060405180830381865afa1580156107cf573d6000803e3d6000fd5b505050506040513d601f19601f820116820180604052508101906107f39190610bff565b92989197509195509350505050565b61082b604051806040016040528060088152602001671d195cdd1d195cdd60c21b81525061082d565b565b610870816040516024016108419190610c44565b60408051601f198184030181529190526020810180516001600160e01b031663104c13eb60e21b1790526108bc565b50565b6108b88282604051602401610889929190610c5e565b60408051601f198184030181529190526020810180516001600160e01b0316634b5c427760e01b1790526108bc565b5050565b80516a636f6e736f6c652e6c6f67602083016000808483855afa5050505050565b80356001600160a01b03811681146108f457600080fd5b919050565b634e487b7160e01b600052604160045260246000fd5b6040805190810167ffffffffffffffff81118282101715610932576109326108f9565b60405290565b604051601f8201601f1916810167ffffffffffffffff81118282101715610961576109616108f9565b604052919050565b600067ffffffffffffffff821115610983576109836108f9565b5060051b60200190565b600080604083850312156109a057600080fd5b6109a9836108dd565b915060208084013567ffffffffffffffff8111156109c657600080fd5b8401601f810186136109d757600080fd5b80356109ea6109e582610969565b610938565b81815260059190911b82018301908381019088831115610a0957600080fd5b928401925b82841015610a2e57610a1f846108dd565b82529284019290840190610a0e565b80955050505050509250929050565b634e487b7160e01b600052603260045260246000fd5b60005b83811015610a6e578181015183820152602001610a56565b50506000910152565b60008251610a89818460208701610a53565b9190910192915050565b60006020808385031215610aa657600080fd5b825167ffffffffffffffff80821115610abe57600080fd5b818501915085601f830112610ad257600080fd5b8151610ae06109e582610969565b81815260059190911b83018401908481019088831115610aff57600080fd5b8585015b83811015610bcb57805185811115610b1b5760008081fd5b86016040601f19828d038101821315610b345760008081fd5b610b3c61090f565b8a84015181528284015189811115610b545760008081fd5b8085019450508d603f850112610b6a5760008081fd5b8a84015189811115610b7e57610b7e6108f9565b610b8e8c84601f84011601610938565b92508083528e84828701011115610ba55760008081fd5b610bb4818d8501868801610a53565b50808b019190915285525050918601918601610b03565b5098975050505050505050565b80820180821115610bf957634e487b7160e01b600052601160045260246000fd5b92915050565b600060208284031215610c1157600080fd5b5051919050565b60008151808452610c30816020860160208601610a53565b601f01601f19169290920160200192915050565b602081526000610c576020830184610c18565b9392505050565b604081526000610c716040830185610c18565b8281036020840152610c838185610c18565b9594505050505056fea26469706673582212209a56f50249aed402c213c14c194d509657db4a9c5f40f70c593429bec94e7da564736f6c63430008160033","linkReferences":{}},"methodIdentifiers":{"claimAllRewards(address,address[])":"32f2298a","getAllRewards(address,address[])":"bb1015c8","test()":"f8a8fd6d"},"id":4}